:100000000C9410010C94510D0C942F010C942F01A1
:100010000C942F010C942F010C942F010C942F01A0
:100020000C942F010C942F010C942F010C942F0190
:100030000C942F010C942F010C942F010C942F0180
:100040000C942F010C942F010C942F010C942F0170
:100050000C942F010C942F010C942F010C942F0160
:100060000C942F010C942F010C942F010C942F0150
:100070000C942F010C942F010C942F010C942F0140
:100080000C942F010C942F010C942F010C942F0130
:100090000C942F010C942F010C942F010C942F0120
:1000A0000C942F010C942F010C942F010C942F0110
:1000B0000C942F010C942F010C942F010C947C0DA7
:1000C0000C942F010C942F010C942F010C942F01F0
:1000D0000C942F010C94D00E0C942F010C942F0132
:1000E0000C942F010C942F010C942F010C942F01D0
:1000F0000C942F010C942F010C942F010C942F01C0
:100100000C942F010C942F010C942F010C942F01AF
:100110000C942F010C942F010C942F010C942F019F
:100120000C942F010C942F010C942F010C942F018F
:100130000C942F010C942F010C942F010C940202AB
:100140000C942F010C942F010C942F010C942F016F
:100150000C942F010C942F010C942F010C942F015F
:100160000C942F010C942F010C942F010C942F014F
:100170000C942F010C942F010C942F010C942F013F
:100180000C942F010C942F010C942F010C942F012F
:100190000C942F010C942F010C942F010C942F011F
:1001A0000C942F010C942F010C942F010C942F010F
:1001B0000C9418030C942F010C942F010C942F0114
:1001C0000C942F010C942F010C942F010C942F01EF
:1001D0000C942F010C942F010C942F010C942F01DF
:1001E0000C942F010C942F01F40806090D095409F1
:1001F000650985091F09320939096A097E098509D6
:1002000066DF000080950100329F0500E6C0070010
:10021000A60E0900E43809000C5D090052D209005D
:1002200011241FBECFEFCDBFDFE2DEBF10E2A0E0A2
:10023000B0E2E0ECF6E300E00BBF02C007900D92E5
:10024000A234B107D9F722E2A2E4B0E201C01D92C4
:10025000AB3AB207E1F70E9468120C945E1B0C9453
:10026000660D9091A10B95FFFCCF8093A00B089594
:100270008091A00B0895E0EAFBE08181881F882728
:10028000881F08950E943B018823E1F308950E948E
:100290003B01882319F08091A00BF9CF0895E0EA83
:1002A000FBE014820895E0E7F0E086818F7E86838C
:1002B000E0EAF6E088E08583818384E08283E0EAF7
:1002C000FBE01482178280E48683848184608483C7
:1002D000138283E085838481886184830E9447013F
:1002E00008958FB7F894E0E0F9E010821682178243
:1002F000E0E0FBE01082168217828FBF089580E154
:10030000E0EAF6E08583E0E0F9E021E02183138272
:1003100010A211A289E090E080A791A72083E0E0DD
:10032000FBE010A211A284E090E086A397A31182C3
:1003300083EF848782E0868384E0808308950E942F
:100340007101109252211092532110924C20109260
:1003500055218DE08093542120E1E0EAF6E02683E8
:10036000E0E0F9E010A211A28FEF9FEF86A397A320
:10037000218388E2838383EF848784E0808382E023
:1003800087830895E0E0F9E081E2818310A211A261
:1003900089E090E080A791A781E080830895809113
:1003A000502120914D2181110AC0209345201092A7
:1003B0004C2110924F2181E08093502113C08091F5
:1003C0004C2190914F21821778F4E82FF0E0E35B05
:1003D000FF4D208120934520920F90934F218F5FF6
:1003E00080934C2180E0089591959093452081E081
:1003F000089580914920813019F410924920089580
:1004000080E008951F920F920FB60F9211240BB641
:100410000F922F933F934F935F936F938F939F937D
:10042000EF93FF932091280930912909809152215F
:1004300090915321A901481B590BCA0120935221C5
:100440003093532120914A2030914B202F5F3F4F12
:1004500020934A2030934B20209155212330C9F11D
:1004600020F42130F9F050F02DC0253009F466C099
:1004700008F44EC0263009F46CC0CAC09A01285551
:1004800032402139314020F41092512183E0B4C030
:100490008C5D9540893E934008F0BAC0109251217E
:1004A00081E0AAC08C5D9540893E934008F0AAC0C7
:1004B000809151218F5F80935121883008F4A8C02A
:1004C00082E09AC08C5D9540893E934008F4A0C0BC
:1004D00099C09A01285532402139314050F4809119
:1004E00051218F5F80935121883008F491C084E0BE
:1004F00083C0885C91098139914008F083C0809164
:100500005121843008F47EC081E080934C207AC071
:100510009A01285532402139314008F479C0805B76
:1005200094408132934008F06AC080914E2181113D
:1005300069C010925021109251215DC0483E63E085
:10054000560708F05CC0409347205093482086E04F
:1005500053C040914720509148209A01285532407D
:10056000280F391F2139314008F049C02091462019
:10057000220F8417950708F421602093462080916C
:1005800051218F5F8830A8F110925121809146202F
:100590009091502191110AC080934D2110924C21CD
:1005A00010924F2181E08093502125C090914C21E1
:1005B00030914D2120914F21931760F4E92FF0E005
:1005C000E35BFF4D8083820F80934F219F5F909369
:1005D0004C2111C0820F80934F21811106C081E010
:1005E00080934E211092492010C081E080934920D1
:1005F0000CC08093512185E08093552109C081E092
:10060000809349201092552103C010925521F3CFB9
:10061000FF91EF919F918F916F915F914F913F91DA
:100620002F910F900BBE0F900FBE0F901F9018953B
:100630001F920F920FB60F9211240BB60F922F93A9
:100640003F934F935F936F937F938F939F93AF935A
:10065000BF93CF93EF93FF9320915421263009F459
:10066000BCC078F4223009F456C028F4222361F18A
:100670002130D1F104C1243009F47EC008F460C0F7
:100680009EC0293009F4BAC098F4273009F4F5C0A7
:10069000283009F0F4C080ED97E08093260B90930A
:1006A000270B81E0809351210E94C20189E045C05F
:1006B0002B3009F4C6C008F4B5C02C3009F0DFC0F7
:1006C00081E080930109D9C080E293E08093260BFA
:1006D0009093270BC1E0C0930C0BC09351210E9453
:1006E000C201C0935421CBC080E293E08093260BDB
:1006F0009093270BC0915121CF5FC0935121C0FD32
:1007000003C02093010902C00E94C201CF3008F447
:10071000B6C082E012C080E496E08093260B9093EE
:10072000270B81E0809301091092502110925121F2
:100730000E94CF018093442083E0809354219FC086
:1007400088E091E08093422090934320809145205F
:1007500087FF06C088E192E0809342209093432077
:1007600080914220909143208093260B9093270BF9
:100770000E94C20184E0E1CF80E293E02091422018
:1007800030914320821B930B8093260B9093270B71
:1007900081E080930109809151218F5F80935121E5
:1007A000883030F480914520880F80934520C4CF55
:1007B00080914420882309F4B9CF85E0BECF88E03A
:1007C00091E080934220909343208093260B909356
:1007D000270B0E94C20186E0B0CF80E293E0209117
:1007E000422030914320821B930B8093260B9093E1
:1007F000270B81E08093010987E09FCF80ED97E090
:100800008093260B9093270B809151218F5F8093CB
:10081000512180FD04C081E08093010930C00E9415
:10082000C2012DC080E293E08093260B9093270BAA
:1008300081E080930C0B809351210E94C2018BE0D8
:100840007CCFC0915121CF5FC0935121C0FD04C026
:1008500081E08093010902C00E94C201C93030F0DA
:100860008CE08093542180E991E002C080E293E023
:100870008093260B9093270B02C00E949F01FF914B
:10088000EF91CF91BF91AF919F918F917F916F9198
:100890005F914F913F912F910F900BBE0F900FBE24
:1008A0000F901F9018959B01482F50E06DE470E267
:1008B000C9010E94C81610924E21089520914E2120
:1008C000222331F020914D21FC01208381E0089505
:1008D00080E00895809154218D3059F08091542109
:1008E000883039F09091542181E0993019F080E0FE
:1008F000089581E008951F93CF93DF93182FEB01A4
:100900000E946A048823E1F30E94710110924E2133
:1009100010934D21412F50E0BE018DE490E20E94E2
:10092000C816109254210E947F01DF91CF911F9130
:1009300008959091552181E0923009F080E008956A
:100940000E949F0108950E946A048823E1F30E9497
:10095000710188E0809354210E947F010895809165
:100960004C20882321F010924C2081E0089580E0F3
:10097000089510924A2010924B20089580914A20A9
:1009800090914B2008950E946A048823E1F30E940D
:1009900071018AE0809354210E947F0108950E9492
:1009A0007101109280010895E0E7F0E084818E7F6C
:1009B000848386818E7F8683E0E8F1E088E6808309
:1009C0001086E0E6F6E0108AA0EAB6E080E1119633
:1009D0008C93119716968C9382E08683818381E0B5
:1009E000828310924E210E949F0108950F939C01D3
:1009F0009FB7F8941BBEF90108ED04BF60839FBF49
:100A00000F910895CF93C82F8A3019F48DE00E947A
:100A100002058091A10B85FFFCCFC093A00B80E065
:100A200090E0CF91089580919521909196219C011D
:100A3000207C3170232BB1F186FF0FC02091F7216C
:100A40003091F82138602093F7213093F82122E08B
:100A50002093FF2121E02093A50687FF0FC020915E
:100A6000F7213091F82138602093F7213093F82155
:100A700024E02093FF2122E02093A50690FF0FC0E1
:100A80008091F7219091F82198608093F7219093BD
:100A9000F82181E08093FF2180E88093250681E0A2
:100AA00080938D2120918F218091F7219091F821C1
:100AB0002130F1F44091A0215091A12120917C217D
:100AC00030917D21BA01615F7F4F4031510558F06F
:100AD0002617370708F003C14F5051094217530733
:100AE00008F0FDC0F9C02617370708F0F8C0F4C0B9
:100AF0009C7F8093F7219093F8214091932150910E
:100B000094218091F7219091F8219A012170332747
:100B100041FF1AC06091FA217091FB212115310526
:100B200039F064606093FA217093FB218F7C1FC0C1
:100B30008F7C80628093F7219093F8216B7F609384
:100B4000FA217093FB2117C08F7C2115310579F0B4
:100B500080618093F7219093F8218091FA21909100
:100B6000FB218B7F8093FA219093FB2104C080931B
:100B7000F7219093F8218091A3218823C1F18091DE
:100B8000F7219091F821FA01E470FF2743FF19C083
:100B90006091FA217091FB21EF2B39F06160609335
:100BA000FA217093FB218C7F1EC08C7F8260809322
:100BB000F7219093F8216E7F6093FA217093FB21C7
:100BC00016C08C7FEF2B79F081608093F721909392
:100BD000F8218091FA219091FB218E7F8093FA2158
:100BE0009093FB2104C08093F7219093F82180918A
:100BF000A2218823C1F18091F7219091F821BA01B7
:100C00006071772745FF19C04091FA215091FB216F
:100C1000672B39F042604093FA215093FB21837F88
:100C20001EC0837F88608093F7219093F8214D7FC9
:100C30004093FA215093FB2116C0837F672B79F0F4
:100C400084608093F7219093F8218091FA2190910C
:100C5000FB218D7F8093FA219093FB2104C0809328
:100C6000F7219093F821409171218091F721909183
:100C7000F8218F73413011F4806401C08068809343
:100C8000F7219093F821232B09F445C08091852109
:100C9000811141C02FB7F894809192218130B1F435
:100CA0008091FA219091FB2194608093FA21909396
:100CB000FB2180915C21811109C08091F7219091E5
:100CC000F82190618093F7219093F82180919221EF
:100CD00080935C212FBF08959C7F91600ACF409143
:100CE0009E2150919F21BA01615F7F4F4031510594
:100CF00058F02617370708F000CF4F505109421718
:100D0000530708F0FACE04C02617370708F0F5CECF
:100D10009C7F9260EECE0895CF93DF93C0E4D6E03F
:100D200083E08E831092852181E0809386214AEFB3
:100D300050E060E070E00E94AA0F84E08E83DF91B3
:100D4000CF91089580919A22811168C01092F72165
:100D50001092F8211092F9211092FA211092FB21A1
:100D60001092FF2180910022813059F580938D21CE
:100D700080E090E18093F7219093F82180E090E467
:100D80008093FA219093FB2180910122813031F4EC
:100D900080E092E48093FA219093FB2180910222DB
:100DA000813049F48091FA219091FB2191608093E8
:100DB000FA219093FB2110920022109202221092AD
:100DC000012260E087E00E940112853A69F480E424
:100DD0008093250681E0809371218091F721909185
:100DE000F8218F7380640BC080E4809326061092F4
:100DF00071218091F7219091F8218F738068809301
:100E0000F7219093F82148EE53E060E070E080E035
:100E10000E94AA0F81E080939A220895813009F000
:100E200045C00E94130580E00E94D00F8823F1F195
:100E30008091A321811117C08091932181FF07C068
:100E40008091F7219091F8218C7F826008C080FF0B
:100E50000AC08091F7219091F8218C7F8160809366
:100E6000F7219093F8218091A221811117C08091E0
:100E7000932181FF07C08091F7219091F821837F12
:100E8000886008C080FF0AC08091F7219091F82106
:100E9000837F84608093F7219093F82184EE97E01C
:100EA00080939B2290939C2210929A220895CF9334
:100EB000DF93D82FC62F0E94D6110E94A7110E943F
:100EC0008C061092862133E03093460624E020936E
:100ED000450680EE80936606D0938821C0938721D3
:100EE00091E0909385214FB7F894909188219111CA
:100EF00002C080E207C0913011F480E403C0923058
:100F000051F480E88093650680918721813081F4D7
:100F10008093450610C0309346062093450697E01F
:100F2000909341068093660680936106A895FECF54
:100F300081E08093460682E0809345064FBFDF91B3
:100F4000CF910895CF93DF93CDB7DEB7C654D109C3
:100F5000CDBFDEBF909154228CEC898380915322C7
:100F60008A8382E0890FA5E5B2E2BE016F5F7F4F01
:100F7000FB012E2F261B291720F42D912283319659
:100F8000F8CF0E947B04CA5BDF4FCDBFDEBFDF918D
:100F9000CF910895CF93DF93E3E5F2E2108282E0F0
:100FA0008183C7EFD1E288819981928383830E94F4
:100FB000A2078B819C818E839F838A818D8310926F
:100FC0008D21DF91CF910895CF92DF92EF92FF9222
:100FD000CF930E94130580916521882381F085E0DD
:100FE0000E94D00F882309F4A5C01092652140E427
:100FF0005EE765E070E085E00E94AA0F9BC09091DB
:101000007B21913009F096C020917E2130917F2183
:1010100080917021253241E03407A8F481112FC05E
:1010200080E280938021909370218091F7219091AC
:10103000F82190648093F7219093F8211092632116
:10104000109264216CC027383140C8F08130B9F467
:101050008091FA219091FB21877F8093FA219093D0
:10106000FB2110928021109270218091F7219091A4
:10107000F8219F7B8093F7219093F82157C081300E
:1010800009F054C08091622181110FC080917121BB
:10109000813059F4109263211092642140E45EE79C
:1010A00065E070E085E00E94AA0F85E00E94D00F05
:1010B0008823E1F120917E2130917F21809163216D
:1010C0009091642101962817390728F51092802104
:1010D000109270218091F7219091F8219F7B80934D
:1010E000F7219093F8212091FA213091FB2123FDE3
:1010F0000AC028602093FA213093FB2190618093ED
:10110000F7219093F82181E08093652140E85EEE1D
:1011100066E370E008C0209363213093642140E4CB
:101120005EE765E070E085E00E94AA0F8091712182
:101130008093622180916E21833011F128F48130F7
:1011400041F08230C1F042C0843061F1853079F1E4
:101150003DC082E00E94D00F8823C1F160E080E0B2
:101160000E94570740EA5CE860E070E082E00E947D
:10117000AA0F82E096C18091932180FD8FC194C116
:1011800082E00E94D00F882309F161E080E00E9494
:10119000570740EA5CE860E070E082E00E94AA0F36
:1011A00084E07FC18091932181FD78C195C18091B8
:1011B000862181110BC010926E218091F7219091B0
:1011C000F8219F778093F7219093F821E0916D218A
:1011D0008E2F90E0FC013197EC30F10508F0A4C0AF
:1011E000EC50FF4F0C94A51682E00E94D00F88238C
:1011F00009F49AC040EA5CE860E070E082E00E9496
:10120000AA0F82E080936D2160E02AC08091932133
:1012100082FF79C10E948C068BC180918621811149
:1012200083C08091A221882311F084E02BC080919B
:10123000F7219091F821837F9F7784606FC082E0CF
:101240000E94D00F882309F46FC040EA5CE860E098
:1012500070E082E00E94AA0F88E080936D2161E037
:1012600081E049C08091932183FF83C10E948C0655
:1012700096C180918621811157C08091A221882337
:1012800059F08AE080936D2140ED57E060E070E016
:1012900082E00E94AA0F48C08091F7219091F82126
:1012A000837F9F7788603AC082E00E94D00F8823B6
:1012B000D9F140EA5CE860E070E082E00E94AA0FA9
:1012C00085E080936D2160E015C08091932184FDBD
:1012D0009DC167C182E00E94D00F882329F140EAB6
:1012E0005CE860E070E082E00E94AA0F8BE08093EF
:1012F0006D2161E082E00E94570716C08091932122
:1013000085FF8AC10E948C069DC180918621811132
:101310000BC08091F7219091F8219F778093F7215E
:101320009093F82110926D2180918E21813049F4A3
:1013300086E00E94D00F882321F00E948C06109234
:101340008E2185E092E20E945E04882309F443C066
:1013500066E072E2809105220E9453048091062289
:101360008939C9F59091072280916F21981333C074
:1013700080910822809304229091052293509093AB
:101380000522992341F0E6E0F2E220E03381319337
:101390002F5F2917D8F3803109F456C108F029C20C
:1013A000823009F0C0C18093532281E0809354229F
:1013B0008091FC21809355220E94A2071092F9216E
:1013C0008091F7219091F8219F7D8093F721909350
:1013D000F82110928D212091F7213091F8218091F0
:1013E0006021909161212817390719F081E08093DD
:1013F0008D2180915F2180959091F921892319F0A9
:1014000081E080938D2180915D2190915E21809576
:1014100090952091FA213091FB2182239323892BEF
:1014200019F081E080938D2180918D218823E1F056
:1014300088E00E94D00F8823B9F00E94BE04049770
:1014400010F40E94C3040E94B90440918921509174
:101450008A2160918B2170918C214C505E4F6F4F8F
:101460007F4F88E00E94AA0F8091F7219091F82188
:1014700080936021909361218091F92180935F2175
:101480008091FA219091FB2180935D2190935E21C0
:10149000CF91FF90EF90DF90CF9008950E948C063F
:1014A00085E080936E2192CE82E00E94D00F811160
:1014B00019C080918F21811189CE8091F72190915F
:1014C000F82190628093F7219093F8218091F9217F
:1014D00082608093F92159CE82E00E94D00F882348
:1014E00009F474CE0E948C068091F7219091F82126
:1014F00090628093F7219093F8218091F921846084
:101500008093F921CDCF82E00E94D00F882391F003
:101510000E948C068091F7219091F821906280932F
:10152000F7219093F8218091F92188608093F92127
:1015300083E06FC080918F218111F6CE8091F721D9
:101540009091F82190628093F7219093F8218091F7
:10155000F92182608093F92161E081E00E945707C0
:1015600040EA5CE860E070E082E00E94AA0F88E058
:1015700050C082E00E94D00F882309F4D5CE0E948B
:101580008C068091F7219091F82190628093F72149
:101590009093F8218091F92188608093F92189E066
:1015A00038C082E00E94D00F882389F00E948C0608
:1015B0008091F7219091F82190628093F721909388
:1015C000F8218091F92180618093F92121C08091D7
:1015D0008F218111A9CE8091F7219091F8219062FD
:1015E0008093F7219093F8218091F9218260809374
:1015F000F92161E082E00E94570740EA5CE860E080
:1016000070E082E00E94AA0F8BE003C00E948C066B
:1016100086E080936D2188CE82E00E94D00F8823DF
:1016200009F482CE0E948C068091F7219091F821D6
:1016300090628093F7219093F8218091F921806145
:101640008093F9218CE0E5CF20910722809106223A
:10165000CFB7F89490E0982F882780939A219093A1
:101660009B2140919A2150919B2180919C219091A6
:101670009D218417950748F4C0909A21D0909B2112
:1016800080919C2190919D2113C040919C2150916B
:101690009D2180919A2190919B218417950790F527
:1016A000C0909C21D0909D2180919A2190919B2166
:1016B000C81AD90A10929721C114D10431F130E02F
:1016C000A8ECB0E00E94AE16611571058105910588
:1016D00089F0E12CF12C2EE330E040E050E00E9454
:1016E0008316C701B6010E94831620939821309378
:1016F00099210BC080919A2190919B2180939C21EC
:1017000090939D2181E080939721CFBF09C08830BD
:1017100009F04BC0809107220E9437110E944F119F
:101720000E94CA0758CE833008F58823C9F3813058
:1017300091F4809353228093542282E112C0813825
:1017400008F014C1813209F465C0823209F4CAC0BC
:10175000803209F4F8C09FEF9093532291E0909368
:101760005422809355220E94A20735CE853079F607
:1017700080935322C1E0C09354228091FF21809333
:1017800055220E94A2078091F7219091F821977F1E
:101790008093F7219093F821C093A60682E080936E
:1017A000A60680E88093260614CE8330A1F68093A7
:1017B000532282E0809354228091FD219091FE215A
:1017C00090935522809356220E94A2078091F72180
:1017D0009091F8219F7E8093F7219093F82180913A
:1017E000FA219091FB21987B8093FA219093FB2121
:1017F000F0CD803809F0A3CF8093532282E080930C
:10180000542280917E2190917F2190935522809344
:101810005622A9CF8091F7219091F82197FF0BC014
:1018200090628093F7219093F8218091F921806450
:101830008093F92175CFF09006228091932182FF49
:1018400002C0F11004C083FF08C0F11006C084FF7D
:1018500002C0F11065CF85FD21C110926E210E945A
:101860008C0640ED57E060E070E082E00E94AA0F35
:101870002091A3218091F7219091F821222341F01A
:10188000FF2011F021E001C027E020936D211AC054
:101890002091A2212223E1F08C7FFF2039F081608A
:1018A0008093F7219093F82184E006C082608093B2
:1018B000F7219093F8218AE080936D218091F721A0
:1018C0009091F82190688093F7219093F82128CF88
:1018D00010926D21807F9F77FF2011F08560F3CFFC
:1018E0008A60F1CF80910622811113C080E4809339
:1018F0002606109271214FEF60E087E00E943E12B1
:101900000E94FC118091F7219091F8218F738068DB
:10191000DACF80E48093250681E08093712160E036
:1019200087E00E940112853A39F045EA60E087E0DD
:101930000E943E120E94FC118091F7219091F821A3
:101940008F738064C0CF8091F7219091F82197FD2B
:1019500067CFC09106228091932180FF02C0C11100
:10196000DFCE81FF7FC0C1117DC0DACE8238C1F4E5
:101970008093532283E08093542280917C21909124
:101980007D21909355228093562280918F21882328
:1019900021F081E080935722E6CE10925722E3CEC9
:1019A000823870F481E88093532281E0809354223E
:1019B0008FB7F89490918121909355228FBFD3CE09
:1019C000883809F0C8CE809106228E3D09F0A8CE55
:1019D000809107228D3A09F0A3CE80910A228E3B96
:1019E00009F09ECE80910B228F3E09F099CEC091D6
:1019F0000822C130A1F480910922811102C061E066
:101A000002C060E080E00E94570748EE53E060E0CB
:101A100070E086E00E94AA0FC0938E2181CEC23072
:101A200049F480910922811102C061E001C060E0A7
:101A300081E009C0C43009F073CE80910922811180
:101A40000FC061E082E00E94570748EE53E060E07B
:101A500070E086E00E94AA0F81E080938E2160CE24
:101A600060E0F0CF0E948C0640ED57E060E070E04F
:101A700082E00E94AA0FCC2311F081E001C083E034
:101A800080936E218091F7219091F8219068809346
:101A9000F7219093F82110926D2142CEF110DDCE06
:101AA0003FCE1F920F920FB60F92112483E08093C6
:101AB000460684E08093450687E08093410680EEE9
:101AC0008093660680936106A895FECF1F920F92C1
:101AD0000FB60F9211240E94510D80939B22909378
:101AE0009C2210929A22089580918221813019F4CB
:101AF000A8951092822108951F920F920FB60F920F
:101B000011240F931F932F933F934F935F936F93E2
:101B10007F938F939F93AF93BF9380918521811182
:101B20001092902180919021813071F018F08230D4
:101B3000D1F1CFC01092730688E080936106809344
:101B4000660610926C218CC040919D2250919E227D
:101B500060919F227091A0228091682190916921CB
:101B6000A0916A21B0916B21805B9F4FAF4FBF4F17
:101B700084179507A607B70708F0ADC080919D228E
:101B800090919E22A0919F22B091A02280936821E3
:101B900090936921A0936A21B0936B2188E0809390
:101BA000620682E06EC02091680680916821909163
:101BB0006921A0916A21B0916B2140919D225091A1
:101BC0009E2260919F227091A02223FF5DC08C0114
:101BD0009D010F5D1F4F2F4F3F4F0417150726071D
:101BE000370770F420916C212F5F20936C212436ED
:101BF00028F121E02093922124E620936C211EC03D
:101C000040919D2250919E2260919F227091A0222E
:101C10008C019D01035E1F4F2F4F3F4F401751070F
:101C20006207730758F420916C21222339F0215068
:101C300020936C21211102C01092922110929121C7
:101C400040919D2250919E2260919F227091A022EE
:101C5000481B4093812188E080936106809366064B
:101C600080919D2290919E22A0919F22B091A022CE
:101C70008093682190936921A0936A21B0936B218E
:101C800081E08093902127C080569F4FAF4FBF4F78
:101C900084179507A607B707F0F480EA809381219F
:101CA00081E08093912198E090936106909366067D
:101CB00040919D2250919E2260919F227091A0227E
:101CC000409368215093692160936A2170936B213E
:101CD000D8CF1092902180919D2290919E22A09128
:101CE0009F22B091A0220196A11DB11D80939D223B
:101CF00090939E22A0939F22B093A0228091832153
:101D000090918421019680938321909384218091E6
:101D10008321909184218115944039F4109283217C
:101D20001092842181E08093822120919C21309126
:101D30009D2180916721232F3327482F50E090E188
:101D40004217530718F49093650602C090936606F5
:101D50002091802190916621921720F420E4209315
:101D6000450603C020E4209346068C5F80936721DC
:101D70009F5F909366218F3F11F410926721BF916E
:101D8000AF919F918F917F916F915F914F913F9113
:101D90002F911F910F910F900FBE0F901F901895CC
:101DA0001F920F920FB60F9211240F931F932F9330
:101DB0003F934F935F936F937F938F939F93AF93D3
:101DC000BF938CED8093C00A80E18093860683E008
:101DD0008093C30A40914B2250914C2260914D2236
:101DE00070914E22CB01AA27BB272091C20A27FF60
:101DF000FCCF8093C30ABB27A72F962F852F209156
:101E0000C20A27FFFCCF8093C30A8091C20A87FFD2
:101E1000FCCF4093C30A8091C20A87FFFCCF8FEFAB
:101E20008093C30A8091C20A87FFFCCF8091C30AC6
:101E300090E02FEF2093C30A2091C20A27FFFCCF26
:101E40002091C30A922B905820E12093850628ED1B
:101E50002093C00A28E0209386061092C30A4E5FA2
:101E60005F4F6F4F7F4F40934B2250934C226093B4
:101E70004D2270934E222091C20A27FFFCCF9093EF
:101E8000C30A00914F22109150222091512230918B
:101E90005222401751076207730720F01092460A3A
:101EA00010924A222091C20A27FFFCCF8093C30AD6
:101EB0008091C20A87FFFCCF0000000000000000F4
:101EC00000000000000000000000000088E0809397
:101ED0008506BF91AF919F918F917F916F915F9197
:101EE0004F913F912F911F910F910F900FBE0F9027
:101EF0001F901895E0E8F6E080E185839CED9093D3
:101F0000C00A8683089580E180938506089588E05D
:101F10008093850608958093C30A8091C20A87FF43
:101F2000FCCF8091C30A08959FB7F89440919D22F9
:101F300050919E2260919F227091A02224E0829F66
:101F4000F0011124E853FE4D408351836283738373
:101F50009FBF0895CF92DF92EF92FF922FB7F89430
:101F6000C0909D22D0909E22E0909F22F090A022CF
:101F700034E0839FC0011124FC01E853FE4DC08270
:101F8000D182E282F382FC01EC55FE4D4083518305
:101F9000628373832FBFFF90EF90DF90CF900895FF
:101FA000CF92DF92EF92FF922FB7F89440919D224B
:101FB00050919E2260919F227091A02234E0839FD5
:101FC000C0011124FC01E853FE4DC080D180E280A5
:101FD000F3804C195D096E097F09FC01EC55FE4D3B
:101FE00080819181A281B3812FBF481759076A0769
:101FF0007B0710F081E001C080E0FF90EF90DF9060
:10200000CF90089524E0829FC0011124FC01EC557B
:10201000FE4D108211821282138208951092EF21D8
:102020001092F0210E947A0F8091F121813011F4F9
:1020300084E801C087E80E948B0F80E00E948B0F2C
:1020400080E00E948B0F80E00C948B0F81E0209148
:10205000ED213091EE212115304108F480E0089502
:10206000CF930E947A0F87ED0E948B0F8FEF0E9413
:102070008B0FC82F0E94830F8C2F881F8827881FE3
:10208000CF9108951092EC218091EC21811105C02F
:102090000E9430108093EC21F7CF0895CF930E94D7
:1020A0007A0F87ED0E948B0F8FEF0E948B0FC82F46
:1020B0000E94830F8C2FCF910895CF930E947A0FA7
:1020C0008FE90E948B0F8FEF0E948B0F8FEF0E9482
:1020D0008B0FC82F0E94830F8C2FCF9108951F93D1
:1020E000CF93DF93EB01182F0E947A0F83E00E94B9
:1020F0008B0F812F0E948B0F8D2F0E948B0F8C2FA7
:10210000DF91CF911F910C948B0F8FEF0C948B0F5D
:10211000CF93C1E0C093F1218093ED219093EE2104
:102120000E940E10C093F221CF9108958091ED216D
:102130009091EE218115904120F40E94A6100E94FA
:10214000830F0E9442101092F2210895CF92DF92E5
:10215000EF92FF920E94830FC090ED21D090EE216C
:10216000E12CF12C89E0CC0CDD1CEE1CFF1C8A95C7
:10217000D1F70E947A0F8091F121813021F41092E1
:10218000F12183E804C081E08093F12186E80E9478
:102190008B0F8E2D0E948B0F8D2D0E948B0F80E058
:1021A0000E948B0F0E94830F8091ED219091EE2170
:1021B00001968093ED219093EE218115904130F0AE
:1021C000FF90EF90DF90CF900C949610FF90EF90DF
:1021D000DF90CF900C940E1081E09091F22191113C
:1021E00080E00895CF92DF92EF92FF926C01E12C94
:1021F000F12C89E0CC0CDD1CEE1CFF1C8A95D1F77C
:102200000E947A0F81E80E948B0F8E2D0E948B0F07
:102210008D2D0E948B0F80E00E948B0F0E94830FF8
:10222000FF90EF90DF90CF900C9442100E948B0FA4
:102230008091EF219091F02101968093EF2190936E
:10224000F0218115924011F40C94A61008950E947B
:102250007A0F8DE30E948B0F8AE20E948B0F80E839
:102260000E948B0F86EA0E948B0F0C94830F2091A3
:102270004922243098F490919922E92FF0E0ED5012
:10228000FE4D808381E0890F843018F48093992279
:1022900002C0109299222F5F2093492208959091B5
:1022A0004922992309F452C080E88093A5068091C1
:1022B0009822E82FF0E0ED50FE4D20818F5F8430B2
:1022C00018F48093982202C0109298229150909313
:1022D00049223FB7F894822F90E0211109C0109253
:1022E0004B2210924C2210924D2210924E2213C07B
:1022F000FC01EE0FFF1FEE0FFF1FE450FE4F459154
:1023000055916591749140934B2250934C22609368
:102310004D2270934E22FC01EE0FFF1FEE0FFF1FA8
:10232000E050FE4F85919591A591B49180934F22F5
:1023300090935022A0935122B093522281E0809337
:10234000460A80934A22809303223FBF08958FB7A5
:10235000F8941092460A10924A2210920322109288
:10236000492210929922109298228FBF089580914D
:102370004922882331F080914A22811102C00E94B3
:102380004F1180914922811110C080914A22811100
:102390000CC080910322813041F40E94A71180E893
:1023A0008093A60688E080938506089580E8809350
:1023B000A606089580E88093A5060895E0E7F0E07A
:1023C00085818D7F8583E0E4FAE010A611A610A236
:1023D00011A286EC91E086A397A311821682178240
:1023E0008FEF848781E080830E94A711E0EAF6E006
:1023F00080E88183868308958091CF0187FDFCCF9B
:102400000895CF93DF93C82FD62F0E94FC1120E2AE
:10241000C29FC0011124DF718D2BE0ECF1E08083BD
:102420009183128286E08287EF93FF930F932F931D
:10243000EBECF1E008ED21E004BF20832F910F9138
:10244000FF91EF918481DF91CF9108950E94FC115B
:102450008091CF0181FF11C086E38093CA01EF9381
:10246000FF930F932F93EBECF1E008ED21E004BF15
:1024700020832F910F91FF91EF9108951F93CF9398
:10248000DF93C82FD62F142F0E942612E0ECF1E024
:1024900083E3828720E2C29FC0011124DF718D2B6C
:1024A000808391831282148385E38287EF93FF9365
:1024B0000F932F93EBECF1E008ED21E004BF2083B4
:1024C0002F910F91FF91EF91DF91CF911F9108957F
:1024D000F89483E08093460684E08093450687E085
:1024E0008093410680EE8093660680936106109289
:1024F000520010925500109256001092530089E03D
:10250000809350008091510083FFFCCF60E081E414
:1025100090E00E94F60463E080E490E00E94F604FC
:1025200014E01093430061E083E590E00E94F6041C
:10253000809150008E7F8093500061E086E990E0AA
:102540000E94F604809171008D7F8093710010923B
:10255000000600E10093010280E280930202D7E0CE
:10256000D0930402B2E0FB2EF092200283E180932C
:10257000210210922202C1E0C09300021092752144
:102580001092762110927721109278211092742166
:1025900010927C2110927D2110927A2110927E213E
:1025A00010927F2110927B2110927921809120023C
:1025B00080688093200283E080934606109345064E
:1025C000D093410618E1109342061093B000109387
:1025D000530680EE809366068093610610928521F3
:1025E0001092862110929C2110929D2110929A2186
:1025F00010929B211092982110929921C0939721BB
:1026000000936106809164068F7E809364068091BA
:1026100074068068809374064EE350E060E070E0DA
:1026200084E00E94AA0FC093A1068091A4068E7F29
:102630008093A406F092A1068091A4068D7F8093DA
:10264000A40680E880932106809124068F778093EA
:10265000240610929D2210929E2210929F22109288
:10266000A022809175008E7F809375001092280AB9
:102670001092290A1092200A1092210A88E893E108
:102680008093260A9093270A1092010A8FEF809375
:102690000C0AC093060A1092070AC093000AA89574
:1026A00067E180E890E00E94F60463E181E890E051
:1026B0000E94F60410928321109284218FE380936C
:1026C00022068093B00088E580933006D09382067E
:1026D000D093B00080939006109293211092942191
:1026E00010929521109296214DE750E060E070E045
:1026F00083E00E94AA0FD0E4D0934606D09341060F
:102700001092802110927021D0932106D09326063A
:10271000109271210E94530180917500877F8093F0
:10272000750088EB80938106D0938206109385060E
:102730001092C10A8CED8093C00A0E94DE110E94A3
:10274000D40410929121109292211092902160E075
:1027500070E082E095E00E94D1160093020610928C
:10276000140610928F218FEF9FE0A1E0B0E0ABBF85
:10277000FC01879180936F2160E080E00E9401124C
:10278000C093A321C093A221803140F481FF109215
:10279000A32182FD07C01092A22104C087E090E22D
:1027A0000E94361760E081E00E9401121092A02181
:1027B0008093A12161E081E00E9401122091A0217B
:1027C0003091A121282B2093A0213093A12160E0FA
:1027D00082E00E94011210929E2180939F2161E06D
:1027E00082E00E94011220919E2130919F21282B8E
:1027F00020939E2130939F2144EF51E060E070E0F0
:1028000088E00E94AA0F10928D2120916F2130E064
:1028100040E050E0243131054105510528F02451B4
:10282000310941095109F6CFA8E2B0E00E94BD1676
:102830006093892170938A2180938B2190938C21BE
:1028400087E08093A200789489E190E20E94361795
:1028500082E390E29F938F938EE390E29F938F9316
:102860000E941C178AE090E00E94301781E080935C
:1028700000221092022210920122909178000F9073
:102880000F900F900F9093FD80930222809178001B
:1028900082FF03C081E0809301228FE38093780060
:1028A00082EA96E080939B2290939C2210929A2237
:1028B000C1E0D2E013E10BE07BE3F72EE3E3EE2E81
:1028C000FBE2DF2EA0EECA2E84E00E94D00F882308
:1028D00009F472C08091972181116BC02FB7F894D1
:1028E00040919A2150919B2180919C2190919D2112
:1028F00084179507E8F480919A2190919B2160912B
:102900009C2170919D214091982150919921861B85
:10291000970B4817590708F041C0409198215091F2
:10292000992180919C2190919D21840F951F31C008
:1029300040919A2150919B2180919C2190919D21C1
:102940004817590758F580919C2190919D216091DD
:102950009A2170919B214091982150919921861B39
:10296000970B48175907D0F440919821509199211D
:1029700080919C2190919D214817590778F44091AE
:1029800098215091992180919C2190919D21841BA7
:10299000950B80939C2190939D210AC080919A2150
:1029A00090919B2180939C2190939D21C09397218E
:1029B0002FBF84E00E94940F8091932190919421E5
:1029C00080935A2190935B2183E00E94D00F88234B
:1029D000B1F02091280680918806877030E4839FAB
:1029E000C00111242F73822B809393219093942103
:1029F0004DE750E060E070E083E00E94AA0F809114
:102A00005A2190915B21809590952091932130914E
:102A100094218223932380939521909396210E9461
:102A2000B7119091852180915921913009F043C0CF
:102A300081112CC0809100028260809300028091FD
:102A40008821811105C0D0932002D09221020DC0AF
:102A5000813029F4D0932002E092210206C0823016
:102A600021F480932002F0922102109272211092A0
:102A70007321809123028160809323028091200240
:102A8000806880932002C0935921EFC08091230277
:102A900080FFE1C08091100290911102209172217B
:102AA00030917321281739070CF0D5C0809372211B
:102AB00090937321D0C0813049F010927A21109206
:102AC0007B218091230280FD26C0CFC0809100022F
:102AD0008260809300021092742184E08093002031
:102AE0001092752110927621109277211092782100
:102AF00010927921D0932002109321028091230219
:102B0000816080932302809120028068809320025C
:102B100010925921AAC08091100290911102209127
:102B20000020222321F02150209300209EC097FFF7
:102B300002C080E090E0092E000CAA0BBB0B409174
:102B40007521509176216091772170917821840FC1
:102B5000951FA61FB71F8093752190937621A09390
:102B60007721B0937821209174212F5F20937421D5
:102B7000203208F470C020917921422F50E0FA01F0
:102B8000EE0FFF1FE458FE4D65E0B695A7959795AB
:102B900087956A95D1F780839183FA01E658FE4DB7
:102BA000C0831092742184E08093002010927521DC
:102BB000109276211092772110927821211123C052
:102BC00040917C2150917D21465451098091FA21F8
:102BD0009091FB214138574088F093FD14C09860D4
:102BE0008093FA219093FB218091F7219091F82115
:102BF00090618093F7219093F82105C0977F80938F
:102C0000FA219093FB212F5F223018F42093792131
:102C100002C01092792180917921882339F0813086
:102C200051F4D09320020093210215C0D0932002CA
:102C30001093210210C083E08093460684E08093C5
:102C4000450687E08093410680EE80936606809378
:102C50006106A895FECF80912302816080932302B4
:102C6000809120028068809320020E94740D8091E0
:102C70008621813071F40E94D00F882351F0109288
:102C8000862183E08093460684E080934506C092C7
:102C900066068091080684FF03C0C0938F2102C09E
:102CA00010928F218091FA219091FB2193FF0DC00A
:102CB0008091582180938F218091562190915721A6
:102CC00080937C2190937D2118C087E00E94D00FD3
:102CD000882399F040E25EE460E070E087E00E94C3
:102CE000AA0F80918F218093582180917C2190910F
:102CF0007D218093562190935721E0919B22F09162
:102D00009C220995E1CDA1E21A2EAA1BBB1BFD0155
:102D10000DC0AA1FBB1FEE1FFF1FA217B307E407BA
:102D2000F50720F0A21BB30BE40BF50B661F771F12
:102D3000881F991F1A9469F76095709580959095F2
:102D40009B01AC01BD01CF010895EE0FFF1F0024D0
:102D5000001C0BBE0790F691E02D0994A29FB001D4
:102D6000B39FC001A39F700D811D1124911DB29FBF
:102D7000700D811D1124911D08950E94AE16A59F0E
:102D8000900DB49F900DA49F800D911D1124089566
:102D9000FB01DC0102C001900D9241505040D8F778
:102DA00008950F931F93CF93DF93009731F461152C
:102DB000710519F480E090E03AC08B01EC016EE0FF
:102DC00070E081E090E00E946A19FC01892B91F388
:102DD00080E883830115110571F00287138781E86C
:102DE00083838091A1229091A222892B21F4E093E8
:102DF000A122F093A2222097C9F0C087D1878381B6
:102E0000826083838091A3229091A422892B71F404
:102E1000E093A322F093A4228091A5229091A62270
:102E2000892B21F4E093A522F093A622CF01DF9114
:102E3000CF911F910F910895CF93DF93CDB7DEB758
:102E4000AE014B5F5F4FFA0161917191AF018091CB
:102E5000A3229091A4220E946617DF91CF9108953A
:102E60006091A3227091A4220C94C41A0F931F9313
:102E7000CF93DF93E091A322F091A422238121FF3D
:102E80001BC08C01D0E0C0E0F80181918F016091FE
:102E9000A3227091A422DB011896ED91FC91199761
:102EA000882331F00995892B79F3DFEFCFEFECCF51
:102EB0008AE00995892B19F08FEF9FEF02C08D2FC3
:102EC0009C2FDF91CF911F910F9108952F923F92E8
:102ED0004F925F926F927F928F929F92AF92BF922A
:102EE000CF92DF92EF92FF920F931F93CF93DF93D6
:102EF000CDB7DEB72B97CDBFDEBF6C017B018A015A
:102F0000FC0116821782838181FFCCC1CE0101961C
:102F10003C01F6019381F70193FD859193FF819127
:102F20007F01882309F4BAC1853239F493FD859174
:102F300093FF81917F01853229F4B60190E00E94D0
:102F4000C41AE7CF912C212C312CFFE1F315D8F0D6
:102F50008B3279F038F4803279F08332A1F4232D6A
:102F600020611DC08D3261F0803369F4232D216012
:102F700016C0832D8260382EE32DE4603E2E2AC0D9
:102F8000F32DF8601DC037FC2DC020ED280F2A302E
:102F900040F08E32B9F436FC81C1232D2064322EEC
:102FA00019C036FE06C08AE0989E200D1124922E8C
:102FB00011C0EAE02E9E200D1124222EF32DF06286
:102FC0003F2E08C08C3621F4832D8068382E02C035
:102FD000883641F4F70193FD859193FF81917F013C
:102FE0008111B3CF982F9F7D9554933028F40C5FB7
:102FF0001F4F9FE399830DC0833631F0833771F003
:10300000833509F059C021C0F801808189830E5FA2
:103010001F4F88248394912C530113C02801F2E0A0
:103020004F0E511CF801A080B18036FE03C0692DFF
:1030300070E002C06FEF7FEFC5010E94B91A4C012A
:103040008201F32DFF773F2E16C0280122E0420EA9
:10305000511CF801A080B18036FE03C0692D70E0DC
:1030600002C06FEF7FEFC5010E94A71A4C01F32D3C
:10307000F0683F2E820133FC1BC0822D90E0881641
:103080009906B0F4B60180E290E00E94C41A2A9436
:10309000F4CFF50137FC859137FE81915F01B601D0
:1030A00090E00E94C41A21102A9421E0821A91080B
:1030B0008114910471F7E8C0843611F0893641F526
:1030C000F80137FE07C060817181828193810C5FB6
:1030D0001F4F08C060817181072E000C880B990B6F
:1030E0000E5F1F4FF32DFF763F2E97FF09C090957F
:1030F0008095709561957F4F8F4F9F4FF0683F2E61
:103100002AE030E0A3010E94001B882E861845C0EB
:10311000853731F4232D2F7EB22E2AE030E025C0F2
:10312000932D997FB92E8F36C1F018F4883579F038
:10313000B5C0803719F0883721F0B0C0E92FE061C1
:10314000BE2EB4FE0DC0FB2DF460BF2E09C034FEB0
:103150000AC0292F2660B22E06C028E030E005C044
:1031600020E130E002C020E132E0F801B7FE07C004
:1031700060817181828193810C5F1F4F06C06081E5
:10318000718180E090E00E5F1F4FA3010E94001B41
:10319000882E8618FB2DFF773F2E36FE0DC0232D7F
:1031A0002E7FA22E891458F434FE0BC032FC09C0C5
:1031B000832D8E7EA82E05C0B82CA32C03C0B82C5E
:1031C00001C0B92CA4FE0FC0FE01E80DF11D8081E5
:1031D000803321F49A2D997EA92E09C0A2FE06C043
:1031E000B394B39404C08A2D867809F0B394A3FCF9
:1031F00011C0A0FE06C0B21488F4280C922C9B18B3
:103200000EC0B21460F4B60180E290E00E94C41ACD
:10321000B394F7CFB21418F42B1802C0982C212CB9
:10322000A4FE10C0B60180E390E00E94C41AA2FE82
:1032300017C0A1FC03C088E790E002C088E590E0D9
:10324000B6010CC08A2D867859F0A1FE02C08BE22F
:1032500001C080E2A7FC8DE2B60190E00E94C41A92
:10326000891438F4B60180E390E00E94C41A9A945D
:10327000F7CF8A94F301E80DF11D8081B60190E04B
:103280000E94C41A8110F5CF222009F442CEB60163
:1032900080E290E00E94C41A2A94F6CFF60186815B
:1032A000978102C08FEF9FEF2B96CDBFDEBFDF91DE
:1032B000CF911F910F91FF90EF90DF90CF90BF9033
:1032C000AF909F908F907F906F905F904F903F90C6
:1032D0002F9008950F931F93CF93DF93869F8001C4
:1032E000879F100D969F100D1124C8010E9486190A
:1032F000EC01009729F0A80160E070E00E94B21A8A
:10330000CE01DF91CF911F910F9108950F931F93DD
:10331000CF93DF938230910510F482E090E0E0914A
:10332000A922F091AA2220E030E0A0E0B0E030979E
:1033300019F1408151810281138148175907C8F062
:103340008417950769F4109731F012960C93129731
:1033500013961C9327C00093A9221093AA2222C07F
:103360002115310519F04217530718F49A01BD01D0
:10337000EF01DF01F801DBCF21153105F9F0281B42
:10338000390B2430310580F48A819B8161157105E8
:1033900021F0FB018283938304C08093A922909340
:1033A000AA22FE01329644C0FE01E20FF31F819370
:1033B000919322503109288339833AC02091A72262
:1033C0003091A822232B41F4209103203091042036
:1033D0002093A7223093A82220910120309102202F
:1033E0002115310541F42DB73EB74091052050918C
:1033F0000620241B350BE091A722F091A822E217AA
:10340000F307A0F42E1B3F0B2817390778F0AC0107
:103410004E5F5F4F2417350748F04E0F5F1F4093F4
:10342000A7225093A8228193919302C0E0E0F0E09C
:10343000CF01DF91CF911F910F910895CF93DF932B
:10344000009709F481C0FC01329712821382A09187
:10345000A922B091AA22109781F420813181820F94
:10346000931F2091A7223091A8222817390751F5E0
:10347000E093A722F093A82267C0ED0120E030E09E
:10348000CE17DF0740F44A815B819E01411551054B
:10349000F1F0EA01F5CFC283D38340815181840FDB
:1034A000951FC817D90759F488819981840F951FF2
:1034B0000296808391838A819B81828393832115E5
:1034C000310529F4E093A922F093AA223DC0E90135
:1034D000EA83FB8349915991C40FD51FEC17FD076F
:1034E00061F480819181840F951F0296E9018883A0
:1034F0009983828193818A839B83E0E0F0E0129636
:103500008D919C911397009719F0FD01DC01F7CF85
:103510008D919C9111979D012E5F3F4F820F931FBC
:103520002091A7223091A8222817390769F43097F3
:1035300029F41092A9221092AA2202C012821382A8
:10354000A093A722B093A822DF91CF910895FC0108
:103550000590615070400110D8F7809590958E0FBE
:103560009F1F0895DC0101C06D9341505040E0F76A
:103570000895FC016150704001900110D8F78095CA
:1035800090958E0F9F1F08950F931F93CF93DF93F6
:10359000FB01238121FD03C08FEF9FEF2CC022FF91
:1035A00016C046815781248135814217530744F460
:1035B000A081B1819D012F5F3F4F208331838C9388
:1035C000268137812F5F3F4F2683378314C08B01BD
:1035D000EC01FB010084F185E02D0995892BE1F6D2
:1035E000D80116968D919C911797019616968D93FA
:1035F0009C931797CE01DF91CF911F910F91089562
:10360000FA01AA27283051F1203181F1E8946F9313
:103610006E7F6E5F7F4F8F4F9F4FAF4FB1E03ED0B9
:10362000B4E03CD0670F781F891F9A1FA11D680F57
:10363000791F8A1F911DA11D6A0F711D811D911D8A
:10364000A11D20D009F468943F912AE0269F1124FF
:103650003019305D3193DEF6CF010895462F477063
:10366000405D4193B3E00FD0C9F7F6CF462F4F70BE
:10367000405D4A3318F0495D31FD4052419302D01C
:10368000A9F7EACFB4E0A6959795879577956795C2
:10369000BA95C9F700976105710508959B01AC01C2
:1036A0000A2E06945795479537952795BA95C9F7E9
:1036B000620F731F841F951FA01D0895F894FFCFFC
:1036C000040000AB22200042616420485720747936
:1036D0007065206279746521000A2A2A2052656982
:1036E0006C6C79205361736820427261696E202A84
:1036F0002A00536570203132203230323400257375
:023700000000C7
:00000001FF
